:100000001AC0C9C0D2C027C026C025C024C023C082
:1000100022C021C020C01FC0C9C01DC01CC01516F1
:100020001718021007090E130B01040D0600081221
:100030000F0A0511030C11241FBECFE5D1E0DEBF6E
:10004000CDBF20E0A0E6B0E001C01D92A237B2070C
:10005000E1F726D055C1D4CFCF93DF93E82FF0E05E
:10006000EF01CC0FDD1FC659DF4F88818F5FE25E45
:10007000FF4FE4918E1720F48883DF91CF9108958C
:1000800018828981EFD061E0811160E08981C7D059
:10009000898190E0019664E170E00BD18983EDCF16
:1000A00080E288BB17BA84EC99E00197F1F704ED80
:1000B00010E38EEFC82E83E2D82EEE24E394F12CC9
:1000C000C8ECD0E07FD080E0C7DF81E0C5DF82E010
:1000D000C3DF83E0C1DF8091600090916100A09157
:1000E0006200B09163000196A11DB11D8093600074
:1000F00090936100A0936200B0936300893F9442A3
:10010000A140B10570F028D0B59BFDCFC801019783
:10011000F1F710926000109261001092620010924C
:100120006300B59915C08091600090916100A09125
:100130006200B09163008E3F9342A140B10540F44C
:10014000C0926000D0926100E0926200F092630081
:10015000CE010197F1F7B6CF90E298BB17BA85B7F9
:10016000877E806185BF95BB8BB780628BBF8AB766
:1001700080628ABF3798F89485B7806285BF85B75B
:10018000846885BF8B7F85BF7894889585B78F7D80
:1001900085BF789408951F920F920FB60F92112485
:1001A0000F900FBE0F901F901895F5CFF4CF809150
:1001B00064008F5F863018F4809364000895109275
:1001C00064000895CF93C6E04091640050E0FA01C6
:1001D000EB59FF4F20812223B1F081E090E001C074
:1001E000880F4A95EAF737B3922F982B9F71307E8C
:1001F000932B38B380952F718223307E832B88BB5D
:1002000097BBCF91D4CFC15041F487B3807E98B3D0
:10021000907E98BB87BBCF910895C9DFD5CF462F7D
:10022000E82FF0E0EE5DFF4FE4918E2F86958695E6
:1002300065E033D0E370E91708F0EF5F21E030E0CC
:1002400001C0220FEA95EAF7E92FF0E0EB59FF4FE2
:10025000442321F08081282B2083089520958081DC
:100260002823FACFE82FF0E0EE5DFF4FE4918E2FC8
:100270008695869565E011D0E370E91708F0EF5F89
:1002800021E030E001C0220FEA95EAF7E92FF0E023
:10029000EB59FF4F808182230895991B79E004C0B8
:1002A000991F961708F0961B881F7A95C9F78095B5
:1002B000089597FB072E16F4009406D077FD08D01A
:1002C0000BD007FC05D03EF4909581959F4F089583
:1002D000709561957F4F0895AA1BBB1B51E107C024
:1002E000AA1FBB1FA617B70710F0A61BB70B881FC6
:1002F000991F5A95A9F780959095BC01CD01089555
:04030000F894FFCF9F
:00000001FF
